:020000040800F2
:100000009818002021540008211400082314000827
:10001000271400082B1400082F140008000000000B
:100020000000000000000000000000003314000881
:1000300035140008000000003714000839140008C7
:100040003B5400083B5400083B5400083B54000854
:100050003B5400083B5400083B5400083B54000844
:100060003B5400083B5400083B5400083B54000834
:100070003B5400083B5400083B5400083B54000824
:100080003B5400083B5400083B5400083B54000814
:100090003B5400083B5400083B5400083B54000804
:1000A0003B5400083B5400083B5400083B540008F4
:1000B00055310008432F00083B5400083B5400080A
:1000C0003B5400083B5400083B5400083B540008D4
:1000D0003B540008133100081D360008993700080A
:1000E0003B5400083B5400083B5400083B540008B4
:1000F0003B5400083B5400083B5400083B540008A4
:100100003B5400083B5400083B5400083B54000893
:100110003B5400083B5400083B540008FD2D0008E8
:100120003B5400083B5400083B5400083B54000873
:1001300000F002F800F0B0F80AA090E8000C824449
:100140008344AAF10107DA4501D100F0A5F8AFF226
:10015000090EBAE80F0013F0010F18BFFB1A43F0A5
:1001600001031847009E0000209E00000A444FF043
:10017000000C10F8013B13F0070408BF10F8014B06
:100180001D1108BF10F8015B641E05D010F8016B4B
:10019000641E01F8016BF9D113F0080F1EBF10F8AF
:1001A000014BAD1C0C1B09D16D1E58BF01F801CBD2
:1001B000FAD505E014F8016B01F8016B6D1EF9D555
:1001C0009142D6D37047000000230024002500266A
:1001D000103A28BF78C1FBD8520728BF30C148BFAA
:1001E0000B6070476E2907F00585702907F0478678
:1001F000662909F0F881652909F0F581672909F078
:10020000F2816129AFF3008003681B0A28BF41F027
:100210008001692907F0B284642907F0AF84752949
:1002200007F0AC846F2907F0D585782907F013868D
:10023000E92907F06F85E42907F06C85F52907F0B7
:100240006985EF2907F0D285F82907F0128603683F
:10025000DB0928BF41F08001632908F0C0817329C0
:1002600008F0C581E32908F0D081F32908F0D58191
:10027000002070471FB507F0F9FE040000200021A0
:1002800008F0ECFE401C60600020002108F0FCFE3D
:10029000E0601FBD10B510BD08F0E8F91146FFF78A
:1002A000E9FF00F050FD08F0B5FA03B4FFF7F2FFE4
:1002B00003BC08F0F5FA000010B541F61F41092013
:1002C00002F012FE4FF4165003F077FA03F09DFE91
:1002D00004F0B6FC10BD10B50020F8490860F849DC
:1002E0000860F8A0F8490860F6A0F8490860F5A091
:1002F000F7490860F3A0F7490860F2A0F6490860E2
:10030000F0A0F6490860EFA0F5490860EDA0F549B6
:1003100008600020F44908604FF47A7005F053F843
:100320000120F249C1F8940102F000FB0823F0A279
:1003300000211E2002F0D4FB0823F0A2022100209D
:1003400002F0CEFB0823F2A20421002002F0C8FB39
:10035000A1E101F03BFD0446002C72D0201F0B28C8
:100360002FD2DFE800F00A0E12161A1E22262A2EBD
:100370000600D4A0EA49086024E0EAA0E849086041
:1003800020E0E9A0E64908601CE0E8A0E449086034
:1003900018E0E7A0E249086014E0E6A0E049086040
:1003A00010E0E5A0DE4908600CE0E4A0DC4908604C
:1003B00008E0E3A0DA49086004E0E2A0D849086058
:1003C00000E000BF00BFBE480068002879D1BB48EC
:1003D0000068401CB94908600846006809281AD21C
:1003E000DFE800F0AF051A30455A70859A00CC4816
:1003F0000068B54908600823C94806210268002042
:1004000002F06EFBC82004F0DEFF0823CEA2062116
:10041000002002F065FB94E0C1480068AB49086029
:100420000823BF48062102680B2002F059FBC820B0
:1004300004F0C9FF0823C4A206210B2002F050FBE0
:100440007FE022E1B6480068A14908600823B4486B
:1004500006210268172002F043FBC82004F0B3FF16
:100460000823B9A20621172002F03AFB69E0AC4844
:100470000068984908600823A948062102682320DB
:1004800002F02EFBC82004F09EFF0823AEA2062136
:10049000232002F025FB54E0A14800688E49086043
:1004A00008239F48062102682F2002F019FBC8206C
:1004B00004F089FF0823A4A206212F2002F010FBDC
:1004C0003FE0CBE0964800688449086008239448E0
:1004D000062102683B2002F003FBC82004F073FFF2
:1004E000082399A206213B2002F0FAFA29E08C4861
:1004F00000687B490860082389481946026847203C
:1005000002F0EEFAC82004F05EFF08238EA219461E
:10051000472002F0E5FA14E081480068714908605C
:1005200008237F4819460268532002F0D9FAC820F0
:1005300004F049FF082384A21946532002F0D0FAA0
:1005400000BF00BF604800687BA1884256D15F4869
:10055000006879A1884251D15D48006876A188423F
:100560004CD15C48006874A1884247D15A48006861
:1005700071A1884242D1594800686FA188423DD19B
:10058000574800686CA1884238D1564800686AA173
:10059000884233D102F0CAF908236CA20021084630
:1005A00002F09EFA08236DA20421002002F098FABE
:1005B0005CA000786D4908705BA0007848705BA073
:1005C000007888705AA00078C8705AA00078087126
:1005D00059A00078487159A00078887158A0007817
:1005E000C8710822624802F034F84FF4FA7004F03F
:1005F000EAFE4FF47A7004F0E6FE2CE03248006820
:1006000000785A49087031480068007848703048CE
:100610000068007888702F4800680078C8702E48FD
:100620000068007808712D480068007848712C48EF
:100630000068007888712B4800680078C87108222B
:100640004B4802F006F84FF4FA7004F0BCFE4FF489
:100650007A7004F0B8FE0120194908601748006854
:10066000082818D100201549086002F05FF9082316
:1006700040A203210A2002F033FA4FF42F7004F055
:10068000A2FE02F053F9522405E00A2004F09BFE7A
:1006900000200B490860522C7FF45BAE10BD70B592
:1006A0000024002593E001F091FB044624B1012CC5
:1006B00068D14FF6FF7070BD89E063E02C01002027
:1006C000300100203000000004010020080100205B
:1006D0000C0100201001002014010020180100204E
:1006E0001C0100202001002094012342000023422D
:1006F000524F4F54204D4F44450000002A20796F3F
:10070000752063616E206368616E6765000000009C
:100710002A2070617373776F726420686572650058
:1007200024010020310000003200000033000000EE
:1007300034000000350000003600000037000000E3
:1007400038000000390000002A000000436F756483
:100750006C65206E6F742073657400005245433AD7
:100760003132333435363738000000003C01002088
:1007700000000708524553455420434F4D504C4507
:1007800054450000032C02D14FF47F4070BD032C70
:1007900009DD0D2C07DA632D05DA05EB850004EB86
:1007A0004000C01E85B20D2C03D10A2095FBF0F04D
:1007B00085B20E2C07D1632D05DA05EB85004FF6C7
:1007C000FF7101EA40050F2C01D12846DEE76AE7F8
:1007D000F8B50027FE4801F04FF9EFE0052F27D2CA
:1007E000DFE807F003274C779300701CC6B202F0D5
:1007F0009DF80823F7A20221002002F071F900F011
:10080000C2FF0446A4B90120F749086000F0D8FFF0
:1008100004460020F549C1F8A0014CB902F086F861
:100820000823F3A20221002002F05AF90026012732
:10083000AEE0701CC6B202F079F80823EEA20221E5
:10084000002002F04DF900F09EFF0446ACB90120F3
:10085000E5490860022000F0B3FF04460020E349A8
:10086000C1F8A0014CB902F061F80823E0A202210E
:10087000002002F035F90026022789E002F056F840
:100880000823E1A20221002002F02AF900F0BBFFB8
:1008900004464CB902F04AF80823DEA202210020E7
:1008A00002F01EF903270FE002F040F80823DAA255
:1008B0000221002002F014F90823D9A2042100200B
:1008C00002F00EF9002600274FF4966004F07BFD3D
:1008D0005EE002F02BF80823D4A20221002002F0EF
:1008E000FFF800F0F5FF04464CB902F01FF80823AA
:1008F000D1A20221002002F0F3F8042700E0002733
:100900004FF4966004F05FFD42E002F00FF8082318
:10091000CDA20221002002F0E3F80823CDA2042199
:10092000002002F0DDF80823CEA20621002002F00C
:10093000D7F800BFFFF7B3FE05460C2003232A4675
:1009400006210090462002F087F84FF47A7004F0F8
:100950003AFD9F480088A842ECDD2946022000F0BD
:10096000D4FF044694B901F0E1FF0823C0A202219C
:10097000002002F0B5F84FF4FA7004F024FD4FF4B3
:100980007A7004F020FD01F0D1FFF8BD002700BF10
:1009900000BF4FF4C87004F016FD052E0ED101F013
:1009A000C5FF0823B6A20221002002F099F84FF4F7
:1009B000967004F008FD01F0B9FF00E00EE700BFFB
:1009C00000BFE2E738B5824801F056F80446002C33
:1009D00038D1AC4801F06FF90446002C32D101F057
:1009E000A5FF0823A8A20021192002F079F8082306
:1009F000A9A20221002002F073F80823A9A2042171
:100A0000002002F06DF80C200090714800889D498C
:100A10000988421A032302215A2002F01DF80C20F3
:100A200000906B488278032304215A2002F014F8C6
:100A30004FF47A7004F0C7FC4FF47A7004F0C3FCF2
:100A400001F074FF38BD38B501F070FF082397A29C
:100A500000211E2002F044F808237BA2022100207E
:100A600002F03EF808237BA20421002002F038F8AF
:100A700008237CA20621002002F032F8322004F084
:100A8000A2FCFFF70CFE04464FF6FF70844200D133
:100A900027E0B4F57F4F03D100F09DFF054610E03D
:100AA0000C200323224606210090462001F0D4FFAB
:100AB0004FF47A7004F087FC0121204600F055FFC6
:100AC00005463DB901F032FF08237BA20221002038
:100AD00002F006F84FF47A7004F075FC01F026FF7E
:100AE00000BF01F023FF102377A20021084601F088
:100AF000F7FF102379A20221002001F0F1FF7A48CC
:100B00000823802203210090582002F03EF838BDCF
:100B10001CB52F4800F0B0FF00F035FE0446002C55
:100B200054D101203049086000F04AFE0446002CF0
:100B300048D12D4908602648028801AB00210120D8
:100B400001F071F80446002C3CD101F0EFFE0823BF
:100B500066A200211E2001F0C3FF082365A2022126
:100B6000002001F0BDFF082366A20421002001F04F
:100B7000B7FF0C200090BDF80420032304211420AB
:100B800001F06AFF0020604908604FF47A7004F0B9
:100B90001AFC01205D49C1F894014FF47A7004F009
:100BA00012FC01F0C3FEBDF8040063280AD158A06E
:100BB00002F0AEFB4FF47A7004F005FC4FF47A704B
:100BC00004F001FC002008490860B7E0BAE000002A
:100BD000240500205072657373207468652066696F
:100BE0006E67657200000000A081214200802142F2
:100BF0004E6F726D616C0000436F6E6669726D209E
:100C0000616761696E000000436F6D706172652EEF
:100C10002E2E00004F4B00004661696C0000000062
:100C200074727920616761696E00000053617669B2
:100C30006E672E2E2E00000053617665207375635B
:100C40006365737300000000496E70757420494439
:100C500000000000303D3C204944203C3D32393901
:100C600000000000596F75722049443A00000000EE
:100C7000536176656420746F20666C617368000050
:100C80004F7574004401002041533630385F44658D
:100C90007461696C730000002A52656D61696E644D
:100CA00065723A002A4C6576656C3A0044656C655D
:100CB000746520465200000044656C6574652073BD
:100CC0007563636573730000456E7465722036202A
:100CD00070617373776F72640000000046696E671D
:100CE00065727072696E74000000002057656C6355
:100CF0006F6D65006F70656E2074686520646F6F3E
:100D00007221000049443A0094012342000023422A
:100D10004F70656E2074686520646F6F7220756E09
:100D2000646572207370656369616C2063697263C6
:100D3000756D7374616E6365730000004FF4167017
:100D400004F041FB1CBD08B5002500244FF4A06051
:100D500005F00AF904F0FAFA4FF4614002F08DFC54
:100D60004FF4E13002F0FCF802F08EF800F072FC73
:100D700000F054FC01F006F801F042FF01F004F924
:100D800001F0C8FFFFF798FA0120FC49087001F054
:100D9000CDFD00BF0120FA4908600823F9A2002117
:100DA000084601F09DFE4FF4C87004F00CFB01F002
:100DB000BDFD0823F6A20221002001F091FE0823C8
:100DC000F7A20521002001F08BFE4FF4487004F0DB
:100DD000FAFA01F0ABFDF44800F092FF0028D9D1F7
:100DE000C9E20822F149F24801F022FC1023F1A2E5
:100DF0000021084601F074FE1023AFF220120221F8
:100E0000002001F06DFE0C200423324605210090E5
:100E1000002001F021FEEC480823802203210090ED
:100E2000582001F0B2FEE948006808B1FFF770FEF3
:100E300000F0CCFF0546002D3DD0032D12D004DC80
:100E4000012D07D0022D34D108E00D2D0ED0102D2C
:100E50002FD11BE0FFF7F7FD00252BE0FFF7B2FDD8
:100E6000002527E0FFF7B4FC002523E0022003F073
:100E7000F6FE0020D64908604FF47A7004F0A3FA19
:100E80000120D449C1F89401002513E002F0C4F90F
:100E90000746012F0BD1D0A002F03AFA07464FF4D3
:100EA0007A7004F090FA4FF47A7004F08CFA00250E
:100EB00000E000BF00BF002D77DD281F0B2825D2E2
:100EC000DFE800F0090C0F1215181B1E2124060084
:100ED000AFF610041BE0AFF2B47418E0AFF2B874D0
:100EE00015E0AFF2B87412E0AFF2BC740FE0AFF2ED
:100EF000BC740CE0AFF2C07409E0AFF2C07406E05D
:100F0000AFF2C47403E0AFF2C47400E000BF00BFEE
:100F1000B948006800286FD1B8480068401CB7493C
:100F2000086008460068092818D2DFE800F09F052D
:100F3000182B3F5266798C00B14804600823224682
:100F40001946002001F0CCFDC82004F03CFA08232B
:100F5000AFF60C021946002001F0C2FD86E0A94858
:100F600004600823224619460B2001F0B9FDC82071
:100F700004F029FA0823AFF6300219460B2001F0DD
:100F8000AFFD73E0A04804600823224619461720ED
:100F900001F0A6FDC82004F016FA0823AFF65802A7
:100FA0001946172001F09CFD60E0B2E1974804600B
:100FB000082322461946232001F092FDC82004F0A0
:100FC00002FA0823AFF680021946232001F088FDBB
:100FD0004CE08F4804600823224619462F2001F078
:100FE0007FFDC82004F0EFF90823AFF6A4021946EC
:100FF0002F2001F075FD39E03CE0864804600823AD
:10100000224619463B2001F06BFDC82004F0DBF9B5
:101010000823AFF6CC0219463B2001F061FD25E024
:101020007D480460082322461946472001F058FDF8
:10103000C82004F0C8F90823AFF6F4021946472087
:1010400001F04EFD12E0754804600823224619465F
:10105000532001F045FDC82004F0B5F90823AFF690
:1010600018121946532001F03BFD00BF00BF0120BC
:10107000614908606148006808287CD162480068BE
:1010800000784A49897888423CD1604800680078F5
:101090004649C978884235D15D480068007843499F
:1010A000097988422ED15B48006800783F49497928
:1010B000884227D100205A49086001F037FCC82037
:1010C00004F081F90823AFF2DC3200211E2001F088
:1010D00007FD0823AFF2E4320221002001F000FDF9
:1010E0000020274908604FF47A7004F06CF9012061
:1010F0004C49C1F894014FF47A7004F064F901F09E
:1011000015FCE1E03E4800680078474909788842CC
:1011100032D13C48006800784349497888422BD155
:1011200039480068007840498978884224D1374896
:10113000006800783C49C97888427AD13448006810
:10114000007839490979884273D1324800680078BB
:101150003549497988426CD12F4800680078324976
:101160008979884265D12D48006800782E49C9796F
:1011700088425ED15AE0AAE05BE00000E104002072
:10118000940123424153363038205265616479001E
:1011900074727920636F6E6E656374696F6E0000A0
:1011A000776169742E2E2E005C0100203C01002026
:1011B00000000708456E74657220382070617373F3
:1011C000776F7264000000000000002018012142C7
:1011D0009481214200802142534F53215468697306
:1011E0002069732061206D65737361676520666F88
:1011F000722068656C700000300100202C01002016
:1012000004010020080100200C0100201001002032
:1012100014010020180100201C01002020010020E2
:10122000280100200000234234010020FFF753F87A
:101230004AE001F07BFBC82004F0C5F808234EA269
:101240000021084601F04CFC082350A20321002095
:1012500001F046FC52480068401C51490860514862
:10126000006808B9012000E000204E4908604FF4F2
:10127000967004F0A8F84C48D0F8940108B9012001
:1012800000E00020474908604FF4967004F09BF896
:101290004548D0F8940108B9012000E000204149F8
:1012A00008604FF4967004F08EF83F48D0F894012F
:1012B00008B9012000E000203A49086001203A49BD
:1012C000C1F8940101F032FB00203849086034482D
:1012D0000068052823D101F09FFF0746012F0BD19D
:1012E00033A002F015F807464FF47A7004F06BF85B
:1012F0004FF47A7004F067F800202949086001F083
:1013000015FB00F063FE01202649086001F00EFB8A
:1013100005E00A2004F057F800202E4908600A2151
:10132000092001F050FD064640F2DC5086421DDDEA
:1013300001F0FCFAC82004F046F8082326A2002198
:10134000084601F0CDFB01F067FF0746012F0BD1E6
:1013500023A001F0DDFF07464FF47A7004F033F864
:101360004FF47A7004F02FF801F0E0FA02F044FE36
:101370002A4803F0C8FD34E52A57726F6E67205083
:10138000617373776F72642A00000000706C65618E
:1013900073652074727920616761696E00000000D6
:1013A0002801002094812142008021422C0100204C
:1013B000596F75206861766520656E746572656425
:1013C0002035206572726F722070617373776F724F
:1013D00064730000300100205761726E696E67000F
:1013E0004861726D66756C2067617320697320684F
:1013F0006967682C20706C65617365207061792065
:10140000617474656E74696F6E20746F2076656E9A
:1014100074696C6174696F6E00000000D710002061
:10142000704700BFFEE700BFFEE700BFFEE700BF5A
:10143000FEE7704770477047704700000CB500200A
:10144000019000906C48006840F480306A49086060
:1014500000BF6948006800F4003000900198401C0B
:101460000190009818B90198B0F5A06FF1D16248C9
:10147000006800F4003010B10120009001E000206D
:1014800000900098012843D15C48006840F01000AB
:101490005A4908600846006820F0030008600846C2
:1014A000006840F0020008605348406852494860B4
:1014B0000846406848600846406840F480604860DC
:1014C0000846406820F47C1048600846406840F4B4
:1014D000E81048600846006840F08070086000BF6F
:1014E0004548006800F000700028F9D04248406884
:1014F00020F00300404948600846406840F0020080
:10150000486000BF3C48406800F00C000828F9D152
:101510000CBD10B5FFF792FF10BD10B5364800683E
:1015200040F00100344908600846406834490840EA
:101530003149486008460068324908402E49086031
:101540000846006820F4802008600846406820F4BF
:10155000FE0048604FF41F008860FFF7DAFF4FF08D
:1015600000602949086010BD10B50021002000224C
:10157000214B5B6803F00C0121B1042906D0082936
:1015800028D107E0214B224C236027E01F4B204C41
:10159000236023E0184B5B6803F47010164B5B6804
:1015A00003F48032022303EB904022B9194B4343EA
:1015B000174C23600DE0104B5B6803F4003323B13C
:1015C000144B4343124C236003E0104B4343104C35
:1015D000236003E00D4B0E4C236000BF00BF064BA1
:1015E0005B68C3F303130C4CE15C094B1B68CB40F5
:1015F000074C236010BD0000001002400020024094
:101600000000FFF8FFFFF6FE08ED00E000127A0090
:101610004801002000093D004C01002008B50121CF
:10162000082004F039FA4FF48070ADF80000102063
:101630008DF8030003208DF802006946044803F08A
:101640006FFF4FF48071024804F019F808BD0000E4
:10165000000C014008B50121042004F01DFA1020FF
:10166000ADF8000028208DF8030003208DF802005B
:101670006946FA4803F054FF08BD00BFF8490988DD
:1016800001F040010029F9D0F549091D0880704793
:1016900010B5EF20FFF7F1FF0120FFF7EEFF10BDBF
:1016A00010B5F0490968080EFFF7E7FFED4800683C
:1016B000C0F30740FFF7E1FFEA480088C0F30720C6
:1016C000FFF7DBFFE7490878FFF7D7FF10BD10B53C
:1016D00004462046FFF7D1FF10BD10B50446C4F301
:1016E0000720FFF7CAFFE0B2FFF7C7FF10BD10B534
:1016F00004462046FFF7C1FF10BD10B50446201276
:10170000FFF7BBFFE0B2FFF7B8FF10BD7CB50546A1
:10171000EF208DF8000001208DF80100D14800680D
:10172000000E8DF80200CF480068000C8DF8030011
:10173000CC480088000A8DF80400CA4800788DF86B
:10174000050007208DF8060000208DF80700C64927
:10175000088012E0012003F036FEC348008800F440
:10176000004050B10020C04908806946BF4806F0DB
:101770009DF804460CB120467CBD681E80B2050071
:10178000E8D100BFF8E770B5FFF782FFFFF788FFE9
:101790000120FFF79CFF0320FFF79FFF0120FFF7C9
:1017A000A6FF05263046FFF7A8FF4FF4FA60FFF7C3
:1017B000ADFF05460DB16C7A00E0FF24204670BDF8
:1017C0002DE9F0410546FFF763FFFFF769FF0120B0
:1017D000FFF77DFF0420FFF780FF0220FFF787FF60
:1017E0002846FFF74AFFEF1D3846FFF786FF4FF404
:1017F000FA60FFF78BFF06460EB1747A00E0FF2413
:101800002046BDE8F08170B5FFF742FFFFF748FFC3
:101810000120FFF75CFF0320FFF75FFF0320FFF7C6
:1018200066FF07263046FFF768FF4FF4FA60FFF7C0
:101830006DFF05460DB16C7A00E0FF24204670BDB7
:101840002DE9F04781460D4616461F46FFF720FF5B
:10185000FFF726FF0120FFF73AFF0820FFF73DFFC3
:101860000420FFF744FF4846FFF707FF2812FFF761
:1018700004FFE8B2FFF701FF3012FFF7FEFEF0B2FF
:10188000FFF7FBFE09F10D0000EB2520E9B208444B
:1018900000EB2620F1B200EB010A5046FFF72DFFC6
:1018A0004FF4FA60FFF732FF044664B194F8098000
:1018B000E07AA17A00EB01203880607B217B00EB8D
:1018C0000120788001E04FF0FF084046BDE8F08736
:1018D00070B5FFF7DDFEFFF7E3FE0120FFF7F7FE2F
:1018E0000320FFF7FAFE0520FFF701FF0926304627
:1018F000FFF703FF4FF4FA60FFF708FF05460DB14D
:101900006C7A00E0FF24204670BD2DE9F0410646C8
:101910000C46FFF7BDFEFFF7C3FE0120FFF7D7FE21
:101920000620FFF7DAFE0620FFF7E1FE3046FFF75C
:10193000A4FE2012FFF7A1FEE0B2FFF79EFE06F123
:101940000D0000EB2420E1B200EB01084046FFF758
:10195000D4FE4FF4FA60FFF7D9FE07460FB17D7A47
:1019600000E0FF252846BDE8F0812DE9F04104465E
:101970000D46FFF78DFEFFF793FE0120FFF7A7FE50
:101980000720FFF7AAFE0C20FFF7B1FE2012FFF799
:1019900074FEE0B2FFF771FE2812FFF76EFEE8B2A8
:1019A000FFF76BFE142000EB2420E1B2084400EBAB
:1019B0002520E9B200EB01084046FFF79EFE4FF4F8
:1019C000FA60FFF7A3FE07460FB17E7A00E0FF261C
:1019D0003046BDE8F08170B5FFF75AFEFFF760FEB4
:1019E0000120FFF774FE0320FFF777FE0D20FFF7BD
:1019F0007EFE11263046FFF780FE4FF4FA60FFF7B7
:101A000085FE05460DB16C7A00E0FF24204670BDCE
:101A10002DE9F04106460C46FFF73AFEFFF740FE7F
:101A20000120FFF754FE0520FFF757FE0E20FFF7B9
:101A30005EFE3046FFF721FE2046FFF71EFE3019FE
:101A400000F114084046FFF758FE4FF4FA60FFF724
:101A50005DFE074667B17D7A0BE00000000801409B
:101A6000004400405C010020F6040020B70D002077
:101A7000FF252846BDE8F0812DE9F0410546FFF736
:101A800007FEFFF70DFE0120FFF721FE0320FFF701
:101A900024FE0F20FFF72BFE13273846FFF72DFEFD
:101AA0004FF47A70FFF732FE0446BCB1667AE07BF1
:101AB000A17B00EB01202880607CA870A07C000640
:101AC000E17C00EB0140217D00EB0120617D0844B9
:101AD0006860E07D2872607E687200E0FF26304614
:101AE000BDE8F0812DE9F0410446FFF7D1FDFFF795
:101AF000D7FD0120FFF7EBFD0720FFF7EEFD1520D6
:101B0000FFF7F5FD200EFFF7B8FDC4F30740FFF720
:101B1000B4FDC4F30720FFF7B0FDE0B2FFF7ADFD61
:101B20001D2000EB1460C4F307410844C4F30721EF
:101B30000844E1B247183846FFF7DFFD8E480460DD
:101B40004FF4FA60FFF7E2FD06460EB1757A00E049
:101B5000FF25894804602846BDE8F0812DE9F0475B
:101B600081460E46FFF794FDFFF79AFD0120FFF72F
:101B7000AEFD2420FFF7B1FD1820FFF7B8FD484661
:101B8000FFF77BFD002407E0305DFFF776FD305D59
:101B9000384487B2601CC4B2202CF5DB09F13D004B
:101BA000384487B23846FFF7A8FD4FF4FA60FFF7D4
:101BB000ADFD054615B195F8098001E04FF0FF082D
:101BC0004046BDE8F0872DE9F04707468846FFF715
:101BD0005FFDFFF765FD0120FFF779FD0420FFF7AA
:101BE0007CFD1920FFF783FD3846FFF746FD07F11E
:101BF0001E094846FFF781FD4FF4FA60FFF786FDA6
:101C0000064666B1757A002406E004F10A00305CED
:101C100008F80400601CC4B2202CF6DB00E0FF25AD
:101C20002846BDE8F0872DE9F04781460D46164667
:101C30001F46FFF72DFDFFF733FD0120FFF747FD9E
:101C40000820FFF74AFD1B20FFF751FD4846FFF72C
:101C500014FD2812FFF711FDE8B2FFF70EFD301258
:101C6000FFF70BFDF0B2FFF708FD09F1240000EBD0
:101C70002520E9B2084400EB2620F1B200EB010A6E
:101C80005046FFF73AFD4FF4FA60FFF73FFD044678
:101C900064B194F80980E07AA17A00EB01203880E1
:101CA000607B217B00EB0120788001E04FF0FF0892
:101CB0004046BDE8F0872DE9F0410646FFF7E8FC15
:101CC000FFF7EEFC0120FFF702FD0320FFF705FD03
:101CD0001D20FFF70CFD21273846FFF70EFD4FF4BE
:101CE000FA60FFF713FD044634B1657AE07AA17A11
:101CF00000EB0120308000E0FF252846BDE8F081A0
:101D000010B50446FFF7C4FCFFF7CAFC0120FFF73B
:101D1000B4FC0020FFF7B1FC0020FFF7AEFCC820A8
:101D200003F051FB1548008800F4004008B3144844
:101D30000078EF281AD112484078012816D11048AF
:101D40008079072812D10E48807800060C49C9789E
:101D500000EB01400A49097900EB01200849497963
:101D60000844206000200549088010BD0020034978
:101D700008800120F9E700005C010020F604002043
:101D8000B70D002008B50121802003F085FE0F204B
:101D9000ADF8000010208DF8030003208DF802003C
:101DA0006946784803F0BCFBF020ADF800004820FD
:101DB0008DF8030003208DF802006946714803F096
:101DC000AFFBF0216F4803F058FC08BD70B500254B
:101DD000FE216C4803F05AFC6A4803F03DFCC4B293
:101DE00004F0F004F02C29D00A2003F0ECFA654846
:101DF00003F032FCC4B204F0F004F02C1ED06148B1
:101E000003F02AFCC4B27E2C0BD0BE2C07D0DE2CF3
:101E100003D0EE2C07D1012506E0022504E00325BE
:101E200002E00D2500E000BF00BF05E0554803F0CB
:101E300013FCC4B204F0F004F02CF7D1FD2151489A
:101E400003F024FC4F4803F007FCC4B204F0F00494
:101E5000F02C29D00A2003F0B6FA4A4803F0FCFB24
:101E6000C4B204F0F004F02C1ED0464803F0F4FB9A
:101E7000C4B27D2C0BD0BD2C07D0DD2C03D0ED2CB3
:101E800007D1042506E0052504E0062502E00E251D
:101E900000E000BF00BF05E03A4803F0DDFBC4B23C
:101EA00004F0F004F02CF7D1FB21364803F0EEFBF0
:101EB000344803F0D1FBC4B204F0F004F02C29D074
:101EC0000A2003F080FA2F4803F0C6FBC4B204F0E6
:101ED000F004F02C1ED02B4803F0BEFBC4B27B2CC8
:101EE0000BD0BB2C07D0DB2C03D0EB2C07D1072564
:101EF00006E0082504E0092502E00F2500E000BF08
:101F000000BF05E01F4803F0A7FBC4B204F0F004D3
:101F1000F02CF7D1F7211B4803F0B8FB194803F068
:101F20009BFBC4B204F0F004F02C29D00A2003F08B
:101F30004AFA144803F090FBC4B204F0F004F02C09
:101F40001ED0104803F088FBC4B2772C0BD0B72CFE
:101F500007D0D72C03D0E72C07D10A2506E00B25A4
:101F600004E00C2502E0102500E000BF00BF05E002
:101F7000044803F071FBC4B204F0F004F02CF7D174
:101F8000284670BD001C014008B50121482003F01F
:101F900083FD2020ADF8000010208DF80300032001
:101FA0008DF802006946FA4803F0BAFA2021F84891
:101FB00003F063FB2020ADF800006946F54803F00C
:101FC000AFFA2021F24803F058FB08BD10B50823F2
:101FD000F1A202210A2000F083FDF348006808B94D
:101FE000012000E00020F0490860642003F0EBF9D4
:101FF000EE48D0F8940108B9012000E00020EA4939
:102000000860642003F0DFF9E848D0F8940108B9CB
:10201000012000E00020E4490860642003F0D3F9C7
:10202000E248D0F8940108B9012000E00020DE4920
:102030000860642003F0C7F9DC48D0F8940108B9BF
:10204000012000E00020D8490860642003F0BBF9BB
:102050004FF4FA7003F0B7F90823D5A202210A2041
:1020600000F03EFDD148D0F8940108B9012000E00D
:102070000020CD490860642003F0A5F9CB48D0F8D2
:10208000940108B9012000E00020C74908606420DD
:1020900003F099F9C548D0F8940108B9012000E08F
:1020A0000020C1490860642003F08DF9BF48D0F8D2
:1020B000940108B9012000E00020BB4908606420B9
:1020C00003F081F9B948D0F8940108B9012000E083
:1020D0000020B5490860642003F075F94FF4FA70E8
:1020E00003F071F90823B6A202210A2000F0F8FCDF
:1020F000AE48D0F8940108B9012000E00020AA49B8
:102100000860642003F05FF9A848D0F8940108B98A
:10211000012000E00020A4490860642003F053F986
:10212000A248D0F8940108B9012000E000209E499F
:102130000860642003F047F99C48D0F8940108B97E
:10214000012000E0002098490860642003F03BF97A
:102150009648D0F8940108B9012000E00020924987
:102160000860642003F02FF94FF4FA7003F02BF9A4
:10217000082397A202210A2000F0B2FC8B48D0F875
:10218000940108B9012000E000208749086064201C
:1021900003F019F98548D0F8940108B9012000E04E
:1021A000002081490860642003F00DF97F48D0F8D1
:1021B000940108B9012000E000207B4908606420F8
:1021C00003F001F97948D0F8940108B9012000E042
:1021D000002075490860642003F0F5F87348D0F8D2
:1021E000940108B9012000E000206F4908606420D4
:1021F00003F0E9F84FF4FA7003F0E5F8082378A249
:1022000002210A2000F06CFC6848D0F8940108B95B
:10221000012000E0002064490860642003F0D3F846
:102220006248D0F8940108B9012000E000205E491E
:102230000860642003F0C7F85C48D0F8940108B93E
:10224000012000E0002058490860642003F0BBF83A
:102250005648D0F8940108B9012000E00020524906
:102260000860642003F0AFF85048D0F8940108B932
:10227000012000E000204C490860642003F0A3F82E
:102280004FF4FA7003F09FF8082359A202210A20A4
:1022900000F026FC4548D0F8940108B9012000E080
:1022A000002041490860642003F08DF83F48D0F8D1
:1022B000940108B9012000E000203B490860642037
:1022C00003F081F83948D0F8940108B9012000E002
:1022D000002035490860642003F075F83348D0F8D1
:1022E000940108B9012000E000202F490860642013
:1022F00003F069F82D48D0F8940108B9012000E0F6
:10230000002029490860642003F05DF84FF4FA705A
:1023100003F059F808233AA202210A2000F0E0FB5A
:102320002248D0F8940108B9012000E000201E499D
:102330000860642003F047F81C48D0F8940108B9FD
:10234000012000E0002018490860642003F03BF8F9
:102350001648D0F8940108B9012000E00020124985
:102360000860642003F02FF81048D0F8940108B9F1
:10237000012000E000200C490860642003F023F8ED
:102380000A48D0F8940108B9012042E040E000007A
:10239000000C014000180140205761697420666FED
:1023A000722031305300000094812142008021428C
:1023B000205761697420666F722039205300000035
:1023C000205761697420666F722038205300000026
:1023D000205761697420666F722037205300000017
:1023E000205761697420666F722036205300000008
:1023F000205761697420666F7220352053000000F9
:10240000205761697420666F7220342053000000E9
:1024100000206E490860642002F0D5FF4FF4FA7086
:1024200002F0D1FF08236AA202210A2000F058FB23
:102430006B48D0F8940108B9012000E000206349FE
:102440000860642002F0BFFF6548D0F8940108B925
:10245000012000E000205D490860642002F0B3FF25
:102460005F48D0F8940108B9012000E000205749E6
:102470000860642002F0A7FF5948D0F8940108B919
:10248000012000E0002051490860642002F09BFF19
:102490005348D0F8940108B9012000E000204B49CE
:1024A0000860642002F08FFF4FF4FA7002F08BFF97
:1024B00008234CA202210A2000F012FB4848D0F861
:1024C000940108B9012000E0002040490860642020
:1024D00002F079FF4248D0F8940108B9012000E0E9
:1024E00000203A490860642002F06DFF3C48D0F8B3
:1024F000940108B9012000E00020344908606420FC
:1025000002F061FF3648D0F8940108B9012000E0DC
:1025100000202E490860642002F055FF3048D0F8B2
:10252000940108B9012000E00020284908606420D7
:1025300002F049FF4FF4FA7002F045FF08232DA284
:1025400002210A2000F0CCFA2548D0F8940108B9FD
:10255000012000E000201D490860642002F033FFE4
:102560001F48D0F8940108B9012000E00020174965
:102570000860642002F027FF1948D0F8940108B9D8
:10258000012000E0002011490860642002F01BFFD8
:102590001348D0F8940108B9012000E000200B494D
:1025A0000860642002F00FFF0D48D0F8940108B9CC
:1025B000012000E0002005490860642002F003FFCC
:1025C0004FF4FA7002F0FFFE10BD0000948121422A
:1025D000205761697420666F722033205300000019
:1025E00000802142205761697420666F722032207A
:1025F00053000000205761697420666F72203120FB
:10260000530000000146088870472DE9F041054657
:102610000E461746002407E036F81410284604F04A
:1026200086FDAD1C601C84B2BC42F5DBBDE8F081C8
:1026300030B503460C461546002207E01846FFF762
:10264000E1FF24F812009B1C501C82B2AA42F5DB69
:1026500030BD2DE9F05F80468A461746B8F1006F1D
:1026600002D33748804501D3BDE8F09F04F017FC42
:10267000A8F1006B4FEADB25CBF34909C9F580646B
:10268000A74200DC3C464DE04FF0006101EBC52065
:102690004A142C49FFF7CCFF00260BE009EB06009B
:1026A000284931F810004FF6FF71884200D003E04E
:1026B000701C86B2A642F1DB00BFA6421BDA4FF0C7
:1026C000006101EBC52004F02FFC002608E03AF879
:1026D000160006EB09011B4A22F81100701C86B295
:1026E000A642F4DB4FF0006101EBC5204A14154906
:1026F000FFF78BFF04E0224651464046FFF785FF77
:10270000A74200D10FE06D1C4FF000090AEB440A0C
:10271000A044381B87B2B7F5806F02DD4FF48064A8
:1027200000E03C46B0E700BF04F0C5FB00BF9BE7FC
:1027300013B50446012201A92046FFF78AFF1CBDFC
:10274000000008083005002010B54021F94802F0CB
:1027500094FF8021F74802F090FF8021F54802F0B5
:102760008EFF4021F34802F08AFF10BD10B54021D2
:10277000F04802F082FF8021EE4802F080FF8021C5
:10278000EC4802F07AFF10BD10B54021E94802F094
:1027900074FF4021E74802F072FF10BD2DE9F041BF
:1027A00005462C464021E34802F069FF002619E067
:1027B000274607F08007802F04D18021DD4802F0F2
:1027C0005CFF03E08021DB4802F059FF6006040E45
:1027D0004021D84802F051FF4021D64802F04FFF77
:1027E000701CC6B2082EE3DBBDE8F08110B50446CC
:1027F000FFF7AAFF7820FFF7D1FFFFF7C5FF002002
:10280000FFF7CCFFFFF7C0FF2046FFF7C7FFFFF73A
:10281000BBFFFFF7ABFF10BD10B50446FFF794FFF9
:102820007820FFF7BBFFFFF7AFFF4020FFF7B6FFB1
:10283000FFF7AAFF2046FFF7B1FFFFF7A5FFFFF75D
:1028400095FF10BD70B504460D461DB1E0B2FFF70F
:10285000E3FF02E0E0B2FFF7C9FF70BD70B50646C6
:10286000002418E004F1B0000021FFF7EBFF002185
:102870000846FFF7E7FF00211020FFF7E3FF0025E0
:1028800005E001213046FFF7DDFF681CC5B2802D51
:10289000F7DB601CC4B2082CE4DB70BD06E041F637
:1028A000650100E0491E0029FCD1401E0028F6D138
:1028B0007047014605E0002001E0421CD0B27B28B1
:1028C000FBDB0A00A1F10101F5D1704770B50446A8
:1028D0000D4605F1B0000021FFF7B4FF102141EAD9
:1028E00014100021FFF7AEFF04F00F000021FFF7E6
:1028F000A9FF70BD10B500218D20FFF7A3FF0021B7
:102900001420FFF79FFF0021AF20FFF79BFF10BDB2
:1029100010B500218D20FFF795FF00211020FFF753
:1029200091FF0021AE20FFF78DFF10BD70B5002490
:1029300018E004F1B0000021FFF784FF00210846F1
:10294000FFF780FF00211020FFF77CFF002505E046
:1029500001210020FFF776FF681CC5B2802DF7DB50
:10296000601CC4B2082CE4DB70BD70B5002418E014
:1029700004F1B0000021FFF765FF00210846FFF7D2
:1029800061FF00211020FFF75DFF002505E0012118
:102990000846FFF757FF681CC5B2802DF7DB601CA7
:1029A000C4B2082CE4DB70BD2DE9F04707460E46A3
:1029B0009046994600250024A8F12000C5B27F2F3B
:1029C00002DD0027B01CC6B2B9F1100F24D1314688
:1029D0003846FFF77BFF002408E004EB0511564A58
:1029E000505C0121FFF72EFF601CC4B2082CF4DB01
:1029F000701CC1B23846FFF769FF002409E004EB00
:102A0000051108314C4A505C0121FFF71BFF601C87
:102A1000C4B2082CF3DB12E031463846FFF756FF0C
:102A200000240AE005EB4501444A02EB4101085D40
:102A30000121FFF707FF601CC4B2062CF2DBBDE8E2
:102A4000F08710B50246012000E050430B00A1F1D1
:102A50000104E1B2F9D110BD2DE9FF5F07469146AF
:102A60001E460E9D4FF0000A002435E0301B401E2C
:102A7000C1B20A20FFF7E5FFB9FBF0F00A21B0FB75
:102A8000F1F201FB1208BAF1000F14D1701EA0423E
:102A900011DDB8F1000F0CD1AB4605EBDB7149102D
:102AA00001FB0471C8B22B4620220199FFF77CFF7D
:102AB00010E04FF0010AAB4605EBDB71491001FB5A
:102AC0000471C8B208F13001CAB22B460199FFF770
:102AD0006BFF00BF601CC4B2B442C7DBBDE8FF9F00
:102AE0002DE9F04104460F461546984600260FE0B2
:102AF000AA5D434639462046FFF756FF04F1080019
:102B0000C4B2782C02DD0024B81CC7B2701CC6B257
:102B1000A85D0028ECD1BDE8F0812DE9F0418046A8
:102B20000E461546002731464046FFF7CFFE0024EB
:102B300011E00000000C014012980008EA9500081E
:102B4000724A02EB8511085D0121FFF77BFE781CBC
:102B5000C7B2601CC4B2102CF2DB701CC1B240467C
:102B6000FFF7B4FE00240CE06900491C674A02EB41
:102B70004111085D0121FFF765FE781CC7B2601C9A
:102B8000C4B2102CF0DBBDE8F0812DE9F05F064601
:102B90000F4690461C46DDF828A04FF0000BE117C9
:102BA00004EB5171C910A4EBC10131B92046E11702
:102BB00004EB5171C1F3C70506E02046E11704EBB1
:102BC0005171C910491CCDB23D4615E02946304629
:102BD000FFF77CFEB1460BE059460BF1010B1AF8EA
:102BE00001000121FFF72EFE09F1010000F0FF09AD
:102BF000C145F1DB681CC5B2A542E7DBBDE8F09F2B
:102C000008B50121082002F047FFC020ADF8000000
:102C100010208DF8030003208DF8020069463C481F
:102C200002F07EFCC0213A4802F027FDC82002F0E5
:102C3000CAFB0021AE20FFF705FE00210846FFF782
:102C400001FE00211020FFF7FDFD00214020FFF7CD
:102C5000F9FD0021B020FFF7F5FD00218120FFF7ED
:102C6000F1FD0021FF20FFF7EDFD0021A120FFF77E
:102C7000E9FD0021A620FFF7E5FD0021A820FFF7D0
:102C8000E1FD00213F20FFF7DDFD0021C820FFF717
:102C9000D9FD0021D320FFF7D5FD00210846FFF71D
:102CA000D1FD0021D520FFF7CDFD00218020FFF7C9
:102CB000C9FD0021D820FFF7C5FD00210520FFF741
:102CC000C1FD0021D920FFF7BDFD0021F120FFF754
:102CD000B9FD0021DA20FFF7B5FD00211220FFF732
:102CE000B1FD0021DB20FFF7ADFD00213020FFF713
:102CF000A9FD00218D20FFF7A5FD00211420FFF77D
:102D0000A1FD0021AF20FFF79DFD08BD600100205F
:102D1000000C014000B587B001214FF4027002F0B1
:102D2000BBFE4FF4004002F01BFE0220ADF8040091
:102D300000208DF8070001A92E4802F0F1FB2E4873
:102D400004F06CFB002002908DF80C008DF80D0053
:102D50004FF4602004900020059001208DF81800A9
:102D600002A9254804F081FB0121234804F0A9FBB6
:102D7000214804F0C8FB00BF1F4804F0C9FB00282D
:102D8000FAD11D4804F0CEFB00BF1B4804F0CFFB76
:102D90000028FAD107B000BD10B504460723012270
:102DA0002146154804F0F9FB0121134804F0C9FB42
:102DB00000BF0221104804F035FD0028F9D00E486C
:102DC00004F052FC10BD2DE9F04107460C460025E9
:102DD000002608E03846FFF7DFFF0544052002F033
:102DE000F2FA701CC6B2A642F4DBB5FBF4F080B276
:102DF000BDE8F081000801400024014010B5012128
:102E00001F4804F018F868B11E48008840F40040DC
:102E10001C49088001211A4804F01EF800211848B6
:102E200003F040FD10BD7FB505460C460121202072
:102E300002F03FFEADF80450ADF800400020ADF8C0
:102E40000600ADF8020069460D4803F0CFF90122F3
:102E500011460B4803F041FD0121094803F022FD12
:102E600037208DF80C0002208DF80D0000208DF821
:102E70000E0001208DF80F0003A803F07AF87FBD43
:102E800000140040F60400201FB50121084602F09E
:102E900010FE42F20F70ADF8080041F61F40ADF889
:102EA00004000020ADF80A00ADF8060001A94FF0BB
:102EB000804003F09BF91C208DF8000003208DF862
:102EC00001008DF8020001208DF80300684603F030
:102ED00050F801221146900703F0FFFC01218807FA
:102EE00003F0E0FC1FBD00007FB505460C46012144
:102EF000022002F0DEFDADF80850ADF804400020DD
:102F0000ADF80A00ADF8060001A9144803F06EF907
:102F100001221146114803F0E0FC1D208DF800004D
:102F200001208DF8010000208DF8020001208DF8AD
:102F30000300684603F01DF80121084803F0B2FCC5
:102F40007FBD10B50121054803F075FF28B10121AF
:102F5000024803F081FF01F05EF810BD000400405C
:102F600010B586B00446012144F2040002F094FD3D
:102F7000F74802F0F5FD4FF40070ADF8140018208A
:102F80008DF8170003208DF8160005A9F14802F00E
:102F9000C7FA4FF48060ADF8140004208DF81700D4
:102FA00005A9EC4802F0BCFA01940020ADF8080035
:102FB000ADF80A00ADF80C00ADF810000C20ADF82B
:102FC0000E0001A9E24802F00EFE25208DF8000057
:102FD00000208DF801008DF8020001208DF803001B
:102FE000684602F0C6FF012240F22551D84802F09F
:102FF00092FE0121D64802F082FE4021D44802F020
:1030000066FF06B010BD10B504460BE000BF4021BE
:10301000CF4802F04FFF0028F9D014F8011BCC482C
:1030200002F0DAFE20780028F0D110BD002004E084
:103030000021C94A1154411C88B26428F8DB0021E0
:10304000C64A1170704710B50446FFF7EFFF2046DF
:10305000FFF7D9FFC2A0FFF7D6FF10BD10B5044699
:103060002146BD4804F022FC08B1012010BD00201B
:10307000FCE72DE9F04180460D4616461C46002728
:1030800011E04046FFF7DFFFA0B202F09CF9A0B2CA
:1030900002F099F92846FFF7E1FF10B10120BDE8E1
:1030A000F081781CC7B2B742EBDB0020F7E710B520
:1030B0000446FFF7BBFF2046FFF7A5FF10BD2DE933
:1030C000F04180460D4616461C4600271DE040464E
:1030D000FFF7EDFFA0B202F076F9A0B202F073F9AB
:1030E000A0B202F070F9A0B202F06DF9A0B202F045
:1030F0006AF9A0B202F067F92846FFF7AFFF10B1F6
:103100000120BDE8F081781CC7B2B742DFDB0020A8
:10311000F7E710B500248E4802F062FEC4B28E4874
:103120008E49097844548D480078401C8B490870BA
:1031300008460078642801DD00200870894800787E
:10314000012806D185480078062802DB012086493F
:10315000087010BD10B50121880703F06CFE68B13E
:103160000121880703F078FE8048007818B100201C
:103170007E49087002E001207C49087010BD2DE9ED
:10318000F04105460027FFF751FF41E078A0FFF727
:103190005AFF4FF47A7002F016F94FF47A7002F089
:1031A00012F900242CE06C48005D2B2826D16A49D6
:1031B000601C085C432821D1A01C085C52281DD14A
:1031C000E01C085C452819D1201D085C472815D152
:1031D000601D085C3A2811D1E01D085C31280DD132
:1031E00004F10900085C312804D004F10900085CEE
:1031F000352803D101270120BDE8F081601CC4B24D
:10320000642CD0DB701CC6B2AE4201DD0020F3E7B7
:10321000002FBBD00020EFE710B54FF4FA73032264
:1032200056A157A0FFF725FF04460CB9012010BD99
:103230004FF4FA73022253A154A0FFF71AFF044679
:103240000CB90220F3E70320FFF799FF04460CB9FD
:103250000320ECE70120EAE710B54FF47A7303226C
:1032600046A14DA0FFF705FF04460CB9052010BD8F
:103270004FF4FA73032241A14DA0FFF7FAFE044672
:103280000CB90620F3E74FF4FA7303223BA14BA0DD
:10329000FFF7EFFE04460CB90720E8E70120E6E758
:1032A0002DE9F0414948002101600F21484804F010
:1032B000D5FB48A1284804F0F9FA0546052634460E
:1032C0006DB105E0285DA11B404A5054601CC4B29A
:1032D000285D0D2806D0F01C8442F3DB02E01620A6
:1032E000BDE8F0810F213A4804F0B8FB3BA1384813
:1032F00004F0EEFA3549364804F02DFB4FF4FA732A
:1033000003221EA13248FFF7B4FE07463846E7E71E
:1033100038B505461A208DF8000000208DF8010010
:103320004FF47A73032215A11BA0FFF7A2FE0446F7
:103330000CB9052038BD4FF4FA7303220FA11CA06D
:10334000FFF797FE04460CB90620F3E74CE00000B7
:103350000038014000080140300D0020E00400204A
:103360000D0A0000E1040020E2040020F404002023
:1033700041542B435245473F000000004F4B000093
:1033800041540000524541445900000041542B4330
:1033900050494E3F0000000041542B43504D533DD7
:1033A00022534D222C224D45222C22534D22000027
:1033B00041542B434D47463D3100000041542B43BF
:1033C0005343533D2247534D22000000E4040020A4
:1033D000A80D002022534D222C00000041542B4305
:1033E0004D47523D000000004FF4FA730322AFF244
:1033F0007401AFF23800FFF73CFE04460CB9072019
:1034000098E74FF4FA73032275A176480068FFF736
:1034100030FE04460CB908208CE72846FFF7F3FD80
:103420004FF47A730122AFF2AC016846FFF747FE12
:1034300004460CB909207DE701207BE738B5054635
:103440001A208DF8000000208DF801004FF47A73E7
:103450000322AFF2D801AFF2C000FFF70AFE044624
:103460000CB9052038BD4FF4FA730322AFF2F40112
:103470005DA0FFF7FEFD04460CB90620F2E74FF40D
:10348000FA73032256A15B480068FFF7F2FD044679
:103490000CB90820E6E72846FFF7B5FD4FF4FA73AC
:1034A0000322AFF228116846FFF709FE04460CB963
:1034B0000920D7E70120D5E770B505464FF4FA7328
:1034C0000322AFF24811AFF24810FFF7D2FD0446D5
:1034D0000CB9012070BD4FF4FA730222AFF25C11F7
:1034E000AFF25810FFF7C5FD04460CB90220F1E712
:1034F0000320FFF744FE04460CB90320EAE74FF42B
:103500002F730222AFF28C112846FFF7B2FD04465A
:103510000CB90420DEE70120DCE710B54FF4FA73A4
:103520000322AFF2A81134A0FFF7A3FD04460CB9A3
:10353000282010BD4FF47A7001F045FF4FF47A70E7
:1035400001F041FF2EA0FFF789FD08B92920F0E71F
:103550000120EEE710B54FF4FA730322AFF2E41145
:10356000AFF2E410FFF785FD04460CB9012010BD51
:103570004FF4FA730222AFF2F411AFF2F010FFF73A
:1035800078FD04460CB90220F1E70320FFF7F7FDB0
:1035900004460CB90320EAE74FF4FA7302221BA198
:1035A0001CA0FFF766FD04464FF47A7001F00BFF94
:1035B0004FF47A7001F007FF0CB90B20D7E7012018
:1035C000D5E710B54FF4FA730222AFF2502112A0E2
:1035D000FFF74FFD04460CB90C2010BD0120FCE79D
:1035E0003E000000E804002041542B434D47463D77
:1035F00030000000EC04002041542B444C53540094
:103600002243414C4C222C3100000000434F4E4ECF
:1036100045435400415441004154480010B540F224
:103620002551564802F05CFCF8B1544802F0D8FB32
:10363000C4B25348008800F40040B0B95048008834
:10364000B0F5C87F12DA00214E4803F0BFFB4C48AA
:10365000008818B901214B4803F024F9484908882B
:10366000411C474A118048490C5405E044480088F1
:1036700040F400404249088010BD10B586B00446B1
:103680000121042002F008FA0121480402F011FA95
:103690003A4802F065FA0420ADF8100003208DF8D6
:1036A000120018208DF8130004A9384801F038FFE3
:1036B0000820ADF8100004208DF8130004A9344848
:1036C00001F02EFF00940020ADF80400ADF80600D4
:1036D000ADF80800ADF80C000C20ADF80A00694602
:1036E000264802F080FA0121244802F008FB01225A
:1036F00040F22551214802F00EFB26208DF81400DF
:1037000002208DF8150001208DF816008DF81700A5
:1037100005A802F02EFC41F61F416320FFF783FB52
:103720000020174908800021164803F0BBF806B0B6
:1037300010BD0FB438B505A800901648009A04993A
:1037400004F0A2F800200090124804F0E5F885B2D9
:1037500000240DE000BF4021084802F0ABFB002828
:10376000F9D00C48015D054802F036FB601C84B2BC
:10377000AC42EFDB38BC5DF814FB000000440040B5
:10378000F604002000140040B70D0020000801409E
:10379000000C0140470F002008B540F225512F488A
:1037A00002F09EFB40B12D4802F01AFBC0B200901F
:1037B0000121684600F096FC08BD10B586B00446AD
:1037C0000121082002F068F90121880402F071F952
:1037D000224802F0C5F94FF48060ADF810000320D4
:1037E0008DF8120018208DF8130004A91C4801F070
:1037F00097FE4FF40060ADF8100004208DF8130020
:1038000004A9174801F08CFE00940020ADF80400D4
:10381000ADF80600ADF80800ADF80C000C20ADF8CE
:103820000A0069460D4802F0DEF901210B4802F05A
:1038300066FA012240F22551084802F06CFA27206E
:103840008DF8140001208DF815008DF816008DF804
:10385000170005A802F08DFB06B010BD004800401F
:10386000000C014010B502460024002302B109B942
:10387000002010BD022303E0D05C2044C4B25B1CD6
:10388000481E9842F8D82046F3E701B581B00020E1
:103890000090694601AA5078087010784870BDF809
:1038A00000000CBD0146080601F47F4240EA0220F8
:1038B00001F47F0240EA122040EA1160704710B51F
:1038C00002460024302A05DB392A03DCA2F130004D
:1038D000C3B20EE0412A05DB462A03DCA2F1370021
:1038E000C3B206E0612A04DB662A02DCA2F15700BB
:1038F000C3B2302905DB392903DCA1F13000C4B2A1
:103900000EE0412905DB462903DCA1F13700C4B2F2
:1039100006E0612904DB662902DCA1F15700C4B28C
:1039200004EB0310C0B210BD70B50446002500269C
:10393000204603F0F1FF06460CB9681E70BD002555
:1039400005E0605D302801D00020F7E76D1CB5422E
:10395000F7D30120F2E72DE9F043034600BF00252D
:10396000002400260027012901D002290DD1A3F14E
:10397000010C4FF06408BCFBF8F4BCFBF8F908FB41
:1039800019C501F10C06174609E04FF0640CB3FBB2
:10399000FCF4B3FBFCF80CFB18350E46174606F199
:1039A000010C4FF01A080CFB08FC4FF00A08BCFB96
:1039B000F8FC05EB950808EB94084FF0020909FBA9
:1039C0001488C444BC44ACF10100002806DB4FF06D
:1039D000070C90FBFCF80CFB180C07E04FF0070CF1
:1039E00090FBFCF80CFB180C0CF1070C6046BDE8D2
:1039F000F08301460A46C81701EB90708010A1EBD6
:103A0000800070B9642091FBF0F300FB131030B913
:103A10004FF4C87091FBF0F300FB131008B90120BC
:103A200070470020FCE710B504462046FFF7E1FF91
:103A300010B14FF4B77010BD40F26D10FBE72DE9E7
:103A4000F04190B080460E4640F2B275302269498E
:103A500001A803F0D1FF344604F5E14400BF11E0B2
:103A60002846FFF7E0FF074640F2A3207843B4EB77
:103A7000C01F06D340F2A3207843A4EBC0146D1CF2
:103A800000E001E0002CEBD100BFA8B2ADF834009B
:103A9000002518E0BDF83400FFF7ABFF08B11D208A
:103AA000029001A850F8250040F2A3214843B4EB4E
:103AB000C01F07D301A850F825004843A4EBC01449
:103AC0006D1C00E001E0002CE4D100BF1C2002903E
:103AD000681CC0B28DF83600012506E046488442D5
:103AE00002D3241A6D1C00E001E0002CF6D100BFC7
:103AF000E8B28DF837004FF46160B4FBF0F0C0B26B
:103B00008DF838004FF46160B4FBF0F100FB114018
:103B10003C21B0FBF1F0C0B28DF839003C20B4FB81
:103B2000F0F100FB11408DF83A00CDF83B600D98A4
:103B3000C8F800000E98C8F80400BDF83C00A8F8CA
:103B400008009DF83E0088F80A0010B0BDE8F0813A
:103B50002DE9F05F80460E46914600241CE016F8E1
:103B600014A06000401C16F800B0504603F07DFE23
:103B70003038C5B2092D01DDE81FC5B2584603F043
:103B800074FE3038C7B2092F01DDF81FC7B207EB4A
:103B9000051008F80400641C4C45E0DBBDE8F09F0C
:103BA000F0B5034600201EE00E5CF71706EB177712
:103BB0003F1107F130050E5CF71706EB17773F1141
:103BC000A6EB07173037FCB2392D01DDEE1DF5B23B
:103BD000392C01DDE61DF4B203F81050012606EB86
:103BE00040069C55401C9042DEDB002603F8126024
:103BF000F0BD0000049E00088051010030B502466F
:103C00000B460021002400250AB9481E30BD0021C2
:103C100008E0545C581A401E155C5554581A401E52
:103C20001454491CB1EB530FF3D30020EEE710B549
:103C300003460020541AB4FBF3F010BD10B5034640
:103C4000002002FB031010BD2DE9F04704460E468C
:103C5000154600273146284605F050FC814621468E
:103C600005F08AFA804605F049FB07463846BDE86C
:103C7000F0872DE9F04704460E46154600272846F2
:103C800005F05CFB8146214605F06CFB8046314621
:103C900005F010FA07463846BDE8F087024612B133
:103CA00002F0070028B9082901D800207047012038
:103CB000FCE702F00700C0F10800884201D30020B1
:103CC000F4E70120F2E72DE9F0470546884614465F
:103CD0001E464FF00009CA460027002314B9581E9B
:103CE000BDE8F087EB0841462846FFF7D7FF0746B7
:103CF0003FB9E05C05F0070106FA01F10843E05422
:103D00001DE0012F1BD1F0B205F00701C1F1080140
:103D100040FA01F905F00700C0F10801FF20084151
:103D200000EA060A581C205C40EA0900591C60544D
:103D3000E05C05F007010AFA01F10843E0540020B5
:103D4000CEE72DE9F04F8FB004460F4690461D4652
:103D50000026B246B146B34600200E90B8F1000FDF
:103D600000D025B94FF0FF300FB0BDE8F08F4FEA1B
:103D7000D4092A46414601A803F0F9FD012D09D9CD
:103D8000294601A8FFF73AFFB0F1FF3F02D14FF0FB
:103D9000FF30E9E739462046FFF780FF8246BAF157
:103DA000000F0CD101A810F8090004F00701084128
:103DB000C7F10802FF2111410840064321E0BAF192
:103DC000010F1ED101A909F10100085C04F00701EF
:103DD000C1F10801791AC1F10802FF21114100EA7D
:103DE000010B01A810F8090004F0070108410E902A
:103DF00004F00700C0F108010BFA01F006430E9829
:103E000006433046B0E72DE9F04F8FB005460C462B
:103E100016469946189F4FF0000AD34600200E9090
:103E20008046B9F1000F00D027B94FF0FF300FB036
:103E3000BDE8F08F3A46494601A803F098FD012FEE
:103E400009D9394601A8FFF7D9FEB0F1FF3F02D1E9
:103E50004FF0FF30EBE731462046FFF71FFF824669
:103E6000BAF1000F0CD101A8405D04F00701084130
:103E7000C6F10802FF211141084040EA080821E08C
:103E8000BAF1010F1ED101A9681C085C04F00701FA
:103E9000C1F10801711AC1F10802FF21114100EAC4
:103EA000010B01A8405D04F0070108410E9004F0E9
:103EB0000700C0F108010BFA01F040EA08080E986B
:103EC00048EA00084046B2E72DE9F04704460D46AF
:103ED0001746089E4FF00009CA46C8461BB94FF066
:103EE000FF30BDE8F08739462846FFF7D7FE804609
:103EF000B8F1000F07D1185D05F0070106FA01F1CE
:103F0000084318551EE0B8F1010F1BD1F0B205F0BF
:103F10000701C1F1080140FA01F905F00700C0F1FD
:103F20000801FF20084100EA060A601C185C40EA0C
:103F30000900611C5854185D05F007010AFA01F1E7
:103F4000084318550020CCE72DE9F05F05460C46E4
:103F5000934600272646A046A146A24605B11CB9B5
:103F60004FF0FF30BDE8F09F002740E0681CC05DC7
:103F7000122838D2DFE800F02C2D2E37372F3031C1
:103F80003237373737333536340930784A49087095
:103F90000846007801281AD1FEF7C8FCC82001F0B5
:103FA00012FA082345A200211E20FEF799FD0823DE
:103FB00044A202210020FEF793FD4FF47A7001F035
:103FC00002FA4FF47A7001F0FEF9FEF7AFFC0BE055
:103FD0000AE009E008E007E006E005E004E003E0AD
:103FE00002E001E000E000BF00BF781CC7B2287803
:103FF000B842BBDC0020B5E710B50A210920FEF766
:10400000E2FE2D49C1F8050010BD2B4800210160DA
:104010004160017270472F480068401C2D490860BC
:1040200070472C4800687047012080F3138800BF58
:1040300000BF2948006800F4E06028490843001DDB
:1040400025490860BFF3408F00BF00BFFEE700B501
:10405000FFF7E1FF00BD08B5002000900121684690
:1040600000F040F808BD70B505460E4600240DB9B5
:10407000601E70BD00241BE0295D194801F0ACFEF4
:1040800000BF8021164801F015FF0028F9D0022C4E
:104090000DD3285DFF280AD15521114801F09CFE5F
:1040A00000BF80210E4801F005FF0028F9D0641CF4
:1040B000B442E1D33046DCE7D710002057656C638B
:1040C0006F6D65006F70656E2074686520646F6F3A
:1040D00072210000F80400200CED00E00000FA0559
:1040E0000048004070B504460D4600260CB9701E0D
:1040F00070BD2A462146FE4801F0DAF80646AE4277
:1041000002D04FF0FF30F3E73046F1E7014611B936
:104110004FF0FF307047002008604860FF200870B3
:1041200048700020F6E770B504460D4614B94FF00C
:10413000FF3070BD2121EF4803F090FC2A46214654
:10414000EC48801C03F013FCEA483F38A0F85A50B2
:10415000012180F84010FFF764FFE6493F39C86548
:104160000020E6E7F8B505460C4616460DB104B149
:1041700016B94FF0FF30F8BD287800F0010098B173
:1041800011212278601C81542078401C207001206D
:104190006B1C0246002100900846FFF734FE08B170
:1041A000012000E0002030700020E4E770B50446F4
:1041B0000D46002604B115B94FF0FF3070BD2878C8
:1041C0002178884200D00126D5F80100D4F80110EA
:1041D00088420DD0FFF725FFC7490968401A41F210
:1041E0007071884204D3FFF71CFFC34908600126A1
:1041F000D5F80500D4F8051088420DD0FFF711FF5F
:10420000BD490968401A41F27071884204D3FFF732
:1042100008FFB949086001263046CFE7F8B50546E2
:104220000C4605B114B94FF0FF30F8BD00202070E6
:10423000287823460122002100900846FFF744FE1B
:1042400001212046FFF7DAFCD5F8012000210120EA
:10425000FFF7EDFC6070D5F8052000210120FFF785
:10426000E6FC86B23046FFF710FB60800020DCE7FA
:104270002DE9F04780460C4617461D46089E94F8E7
:1042800000900CB105B11EB94FF0FF30BDE8F087CA
:10429000B8F1000F55D113219648213003F0DEFB11
:1042A000B9F1010F06D0B9F1020F12D0B9F1050F23
:1042B00045D124E08F4A7132A2F15001601CFFF712
:1042C00051FF01208B493F390870002500203060E4
:1042D00036E088496D3101F10D00FFF79FFF50B9BD
:1042E00084483F38D0F8AC00C5F80100032028709E
:1042F0000520306002E04FF0FF30C7E720E07A1E73
:10430000611C7C48253803F032FB781E79493F391F
:10431000C1F83300102177483F3890F860206130B1
:104320008154613890F86000401C72493F3981F82F
:1043300060000320087000250020306000E000BF0E
:1043400000BF0020A2E72DE9F04F8FB005468B4655
:104350009046994600200E9082460026002701AC28
:10436000BBF1000F03D1401E0FB0BDE8F08FB9F1D3
:10437000010F04D12E7AB01D404487B202E008F14B
:10438000050087B2FF2004F8010B04F8010B381276
:1043900004F8010B04F8017B2879401C04F8010B98
:1043A000687904F8010B002004F8010B04F8019B64
:1043B0004FF0080AB9F1010F0DD104F8016B0AF1B1
:1043C000010A01A901EB0A00324605F1090103F0D7
:1043D000CEFAB2443444B8F1000F06D001A901EB83
:1043E0000A004246594603F0C2FA391D01A8FFF7F8
:1043F00039FA0146F81C01AA1154391D01A8FFF72A
:1044000032FE0E900E98002802DA6FF00100ABE742
:104410000020A9E72DE9FF4104460D461746002676
:104420001DB9701E04B0BDE8F0816846FFF76EFE4E
:1044300005208DF804002F483F3890F83710D0F849
:104440003700401C2B4A3F3AC2F83700C8B28DF8FB
:1044500005008DF808400A20FFF717FAADF80200B2
:104460003A4629460DF1090003F081FA0E2168460B
:10447000FFF7F8F98DF80D000E216846FFF7F3FD00
:104480000646002E02DA6FF00100CBE70E216846E7
:10449000FFF749FE3046C5E770B50446FFF7C1FD9A
:1044A000054614497A312046FFF780FE012814D1D1
:1044B00010496D312046FFF7B1FE28B904220D499D
:1044C0006D311046FFF7A6FF0A48801C21688167FE
:1044D0006168C167217A80F880100848B5FBF0F167
:1044E00000FB115018BB06480068A8421FD009E025
:1044F000F01100201F110020FC040020C02709003B
:1045000000050020F9492046FFF788FE20B9042263
:10451000F6491046FFF77EFFF4486B382168816743
:104520006168C167217A80F88010F148056070BD2C
:104530002DE9FE4F80460E4617464FF0000B002037
:10454000029081468246002534460090B8F1000F63
:1045500001D006B11FB94FF0FF30BDE8FE8F4046D5
:1045600000F02AFE00F0FF0ABAF1000F02D14FF06E
:10457000FF30F2E74FF000095DE0012201A940465B
:1045800000F045FE8346BBF1000F52D0D9480078B9
:10459000FF281FD19DF80400FF281BD1D6480078C2
:1045A00048B9FF20207060700220D44908800120A3
:1045B000D149087034E0D1480088042830DDCF4864
:1045C0000088A8422CD0FF20207060700220CB49C8
:1045D000088025E0C7480078FF2803D19DF8040033
:1045E00055281DD0C4480078012819D19DF8040031
:1045F000C24909886054C1480088401CBF490880EE
:104600000846008804280BDD0094009C6088FFF7B2
:104610003CF9001D85B2B9480088A84200D10CE0E1
:104620009DF80400B3490870B5480078401CB449AF
:10463000087009F10109D1459FDB00BFAF48008830
:10464000042823DDAD480088A8421FD1AB4801886B
:104650002046FFF707F90290A8480088401E215C19
:10466000029881420FD12A462146304603F07FF955
:104670003D800020A0490870A0490880A04908702A
:104680009C49087069E76FF0010066E7012064E764
:1046900010B500249548AC3890F8400000B910BD22
:1046A0009248AC38B0F85A104130FFF7DCFC0446B1
:1046B000FFF7B7FC8D49AC39C86500BFEFE770B5AF
:1046C00004468A4D6B3D14B94FF0FF3070BD287918
:1046D000401C2179884204D1212184486D3803F09F
:1046E000BDF90020F2E73EB5044600250CB9681E6E
:1046F0003EBD20680090606801909DF80400401C59
:10470000C0B28DF804000520FFF7BFF8ADF8020035
:1047100009216846FFF7A6F88DF8080009216846C8
:10472000FFF7A1FC05462846E2E710B56F48AC3814
:1047300090F8400001281ED16C48AC3890F83F003A
:10474000022813DAFFF76DFC6849AC39C96D401ACD
:10475000C82810D9FFF79CFF6448AC3890F83F0098
:10476000401C6249AC3981F83F0004E021215F48D8
:104770006D3803F073F910BD30B59DB004460025C7
:1047800014B9681E1DB030BD6846FFF7BFFC02209B
:104790008DF8040060798DF805005AA103C9CDE9B0
:1047A00002015BA103C9CDE904015CA103C9CDE904
:1047B00008015DA103C9CDE9060120225DA10AA877
:1047C00003F01AF9202264A10DF1520003F0CFF892
:1047D0000020CDF84A00CDF84E009DF851008DF82C
:1047E00051009DF8510040F002018DF85110002059
:1047F000FFF74BF8ADF848006F20FFF746F8ADF82B
:10480000020073216846FFF72DF88DF872007321BE
:104810006846FFF728FC05462846B3E7FEB5044680
:104820000D4600260CB9701EFEBD6846FFF76EFCF3
:1048300012208DF8040060798DF805000620FFF73E
:1048400024F8ADF802008DF808500A216846FFF7F9
:1048500009F88DF809000A216846FFF704FC0646AE
:104860003046E1E770B50446254614B94FF0FF30F5
:1048700070BD1E481730A9680160E9684160298A47
:104880000181A97C8172A0F1C301B1F8C300FEF7D8
:10489000FCFF1649AC39A1F8C300D1F8CB00FFF7F3
:1048A00001F81249AC39C1F8CB000E210F48AC38E1
:1048B00090F8862087308154873890F88600401C15
:1048C0000A49AC3981F88600042008700020CFE73F
:1048D00010B5FFF7A6FB044600BFFFF7A2FB001BC5
:1048E000B0F5167FF9D9FFF79FFB10BD8C110020A2
:1048F0000005002008050020040500200605002012
:1049000009050020303030303030303400000000F5
:10491000303030303030303200000000303330334F
:104920003030303000000000303330313031303042
:1049300000000000643461653563616138346637B6
:104940003432313862633561663364306161636685
:10495000386437350000000039386133336364331D
:104960003465653434643666386334646561636520
:1049700039623737323864350000000010B504461C
:1049800014B94FF0FF3010BD2089FEF77EFF208163
:10499000F5480078C0F38000217AC1F38001884295
:1049A00048D0207AC0F3800010B3207A00F00100D4
:1049B00060B10021ED4890F8732074308154743850
:1049C00090F87300401CE94981F87300207AC0F325
:1049D000400078B30121E54890F873207430815489
:1049E000743890F87300401CE04981F8730021E0AE
:1049F000207A00F0010060B10021DC4890F87320BB
:104A000074308154743890F87300401CD74981F891
:104A10007300207AC0F3400060B10221D34890F8BF
:104A2000732074308154743890F87300401CCF495F
:104A300081F87300CC480078C0F3C000217AC1F33C
:104A4000C001884226D0207AC108C748007861F3A7
:104A5000C300C5490870207AC0F3C00068B10321C3
:104A6000C24890F8732074308154743890F8730001
:104A7000401CBE4981F873000CE00421BB4890F84B
:104A8000732074308154743890F87300401CB74917
:104A900081F87300B4480078C0F30010217AC1F3A4
:104AA0000011884226D0207A0109AF48007861F3CE
:104AB0000410AD490870207AC0F3001068B10521D8
:104AC000AA4890F8732074308154743890F87300B9
:104AD000401CA64981F873000CE00621A34890F819
:104AE000732074308154743890F87300401C9F49CF
:104AF00081F873009C480078C0F34010217AC1F31C
:104B00004011884226D0207A41099748007861F305
:104B1000451095490870207AC0F3401068B107210C
:104B2000924890F8732074308154743890F8730070
:104B3000401C8E4981F873000CE008218B4890F8E6
:104B4000732074308154743890F87300401C874986
:104B500081F8730084484078C0F3C001607AC0F3E4
:104B6000C000814226D0607AC1087F48407861F356
:104B7000C3007D494870607AC0F3C00068B10B2162
:104B80007A4890F8732074308154743890F8730028
:104B9000401C764981F873000CE00C21734890F8B2
:104BA000732074308154743890F87300401C6F493E
:104BB00081F873006C484078C0F30011607AC0F34C
:104BC0000010814226D0607A01096748407861F37D
:104BD000041065494870607AC0F3001068B109217B
:104BE000624890F8732074308154743890F87300E0
:104BF000401C5E4981F873000CE00A215B4890F884
:104C0000732074308154743890F87300401C5749F5
:104C100081F873000D21554890F873207430815449
:104C2000743890F87300401C504981F87300607A22
:104C300000F0070081F8C200022008700020A2E600
:104C400010B532204A4908604A48C860084600F05A
:104C500095FA4FF48871454802F000FF10BD30B559
:104C600087B004460025052C7DD2DFE804F0032A36
:104C70005385AC0001A8FFF749FA0B208DF8080016
:104C80003A4890F83710D0F83700401C374AC2F83D
:104C90003700C8B28DF809000520FEF7F6FDADF823
:104CA0000600092101A8FEF7DDFD8DF80C000921A1
:104CB00001A8FFF7D8F90546092101A8FFF733FA43
:104CC000A9E004A8FFF722FA09208DF8140027486C
:104CD00090F83710D0F83700401C244AC2F837004B
:104CE000C8B28DF815008DF818400620FEF7CDFDEE
:104CF000ADF812000A2104A8FEF7B4FD8DF81900E2
:104D00000A2104A8FFF7AFF905460A2104A8FFF716
:104D10000AFA80E004A8FFF7F9F909208DF81400D9
:104D2000124890F83710D0F83700401C0F4AC2F8EC
:104D30003700C8B28DF815008DF818400620FEF730
:104D4000A4FDADF812000A2104A8FEF78BFD8DF832
:104D500019000A2104A8FFF786F905460A2104A8CC
:104D6000FFF7E1F957E055E00A050020E0100020C8
:104D7000F01100200012002001A8FFF7C7F913204E
:104D80008DF80800FB4890F83710D0F83700401C29
:104D9000F84AC2F83700C8B28DF809000520FEF7BE
:104DA00074FDADF80600092101A8FEF75BFD8DF842
:104DB0000C00092101A8FFF756F90546092101A8B1
:104DC000FFF7B1F927E001A8FFF7A0F915208DF84A
:104DD0000800E84890F83710D0F83700401CE54A42
:104DE000C2F83700C8B28DF809000520FEF74DFD66
:104DF000ADF80600092101A8FEF734FD8DF80C007E
:104E0000092101A8FFF72FF90546092101A8FFF79D
:104E10008AF900E000BF00BF284607B030BD3EB5AC
:104E200000246846FFF772F917208DF80400D14876
:104E300090F83710D0F83700401CCE4AC2F837003F
:104E4000C8B28DF805000520FEF71FFDADF8020081
:104E500009216846FEF706FD8DF80800092168461D
:104E6000FFF701F9044609216846FFF75CF93EBDEA
:104E70003EB500246846FFF749F921208DF804006B
:104E8000BC4890F83710D0F83700401CB94AC2F837
:104E90003700C8B28DF8050000208DF80800062004
:104EA000FEF7F3FCADF802000A216846FEF7DAFCD3
:104EB0008DF809000A216846FFF7D5F804460A2153
:104EC0006846FFF730F93EBD70B50446254614B973
:104ED0004FF0FF3070BD412205F10801A548CF30E9
:104EE00002F045FD0F21A34890F899209A30815493
:104EF0009A3890F89900401C9E4981F89900052045
:104F000008700020E6E72DE9F04190B00546002644
:104F10000020029001900024804600271DB9401E09
:104F200010B0BDE8F081FFF700FC02AA9149491CCE
:104F30009148FFF7FDFA0646002E6FD18D4C641C98
:104F400020790D283CD00EDC072835D006DC01285E
:104F500018D003281AD0062859D138E00A2837D0AB
:104F60000C2854D135E0162834D006DC0F2835D073
:104F7000112839D014284AD137E0182839D02228EE
:104F800045D13DE02046FFF7F7FB45E001A8009042
:104F900007F10900BDF808301A1A76480930C1191E
:104FA00003AB4046FFF764F928B9E37903A920462B
:104FB000019AFFF7C8F92FE02046FFF794FB2BE09A
:104FC0002046FFF790FB2046FFF7D8FC24E000BF07
:104FD00000BF00BF2046FFF772FB1DE02046FFF731
:104FE00082FBFFF775FC17E016E02046FFF767FB32
:104FF00012E02046FFF763FB2046FFF733FC0BE08F
:105000002046FFF75CFB2046FFF75EFF04E002212D
:105010002046FFF703FC00BF0CE0FFE716F1020F8C
:1050200008D1544C641C01212046FFF7F7FB6FF0B8
:10503000010075E74F48007806284BD2DFE800F002
:105040004A0312212C3B00204A4908700922B03142
:10505000A1F15000FEF778FF13214648603002F0BE
:10506000FDFC38E00020434908700122C231A1F163
:105070004F00FEF769FF13213E48733002F0EEFC4B
:1050800029E000203B4908700846D0F833201A3147
:105090006030FEF759FF1EE00020364908700C22F0
:1050A000C331A1F13D00FEF74FFF13213148863097
:1050B00002F0D4FC0FE000202E4908704122CF31CD
:1050C000A1F13600FEF740FF41212A48993002F055
:1050D000C5FC00E000BF00BF2846FFF7DDF9002057
:1050E0001EE72DE9F04188B006460F464FF0000854
:1050F00001ACB81D85B226B94FF0FF3008B0BDE84D
:10510000F081FF2004F8010B04F8010B281204F8C9
:10511000010B04F8015B052004F8010B154890F819
:105120003710D0F83700401C124AC2F8370004F894
:10513000011B002004F8010B04F8010B062004F801
:10514000010B3A4631460DF10D0002F010FC291D0D
:1051500001A8FEF787FB0146E81C01AA1154291D8E
:1051600001A8FEF780FF8046291D01A8FEF7DBFF9E
:105170000020C3E7E0100020F0110020014611B923
:105180004FF0FF307047C8684860C86888600020EA
:10519000F8E7014611B94FF0FF3070470020C860B2
:1051A00048608860086000BFF7E7014611B94FF01A
:1051B000FF3070470868FCE700B5024612B94FF0AF
:1051C000FF3000BD50689168884201D10020F8E7A7
:1051D00050689168884203D290685168401AF0E79D
:1051E0001046FFF7E2FF51689368C91A401AE8E7D2
:1051F00030B5044614B94FF0FF3030BD2046FFF7FC
:10520000D4FF05462046FFF7D7FF281AF5E72DE91A
:10521000F04104460F461646002514B9681EBDE845
:10522000F08117B94FF0FF30F9E76068A168884254
:1052300014D22046FFF7C0FFB04201D9304602E049
:105240002046FFF7B9FF054661682A46384602F056
:105250008EFB6068284460602846E0E72046FFF740
:10526000A4FF6168E268891A401AB0420AD935463B
:1052700061682A46384602F07AFB6068284460601C
:105280002846CCE72046FFF790FF6168E268891A5C
:10529000451A61682A46384602F069FBE06860609A
:1052A000721B79192046FFF7B2FF05442846B6E77E
:1052B0002DE9F04104460F461546002604B11FB9FA
:1052C0004FF0FF30BDE8F0812046FFF791FFA84284
:1052D00002D86FF00100F5E76068A16888422AD81B
:1052E0002046FFF762FFA168E268891A461AB542B4
:1052F00013D8A0682A46394602F039FBA068284432
:10530000A0602046FFF751FFE1680844A168884289
:1053100001D1E068A0602846D4E7A068324639464B
:1053200002F025FBE068A060AA1BB9192046FFF730
:10533000BFFF3044C6E7A0682A46394602F017FB93
:10534000A0682844A0602846BCE7000010B56FF0B4
:10535000040000F058FE2E4800682E49B0FBF1F022
:105360002D4908700846007800EB4001C1EBC010E1
:105370004FF6FF7101EAC0002849088010BD0146C0
:10538000254A12784A434FF0E0235A6100229A617D
:105390001A46126942F001021A6100BF4FF0E02282
:1053A000106900F001021AB100F48032002AF5D031
:1053B0004FF0E022126922F001024FF0E0231A615F
:1053C00000229A6170470146144A12884A434FF0FE
:1053D000E0235A6100229A611A46126942F00102E2
:1053E0001A6100BF4FF0E022106900F001021AB10B
:1053F00000F48032002AF5D04FF0E022126922F04A
:1054000001024FF0E0231A6100229A617047000008
:105410004801002000127A000C0500200E05002033
:105420000948804709480047FEE7FEE7FEE7FEE738
:10543000FEE7FEE7FEE7FEE7FEE7FEE70448054974
:10544000054A064B704700001B1500083101000893
:10545000981200209818002098140020981400201A
:1054600010B50446CC48844208D10121042000F044
:105470002DFB0021042000F029FB46E0C7488442B0
:1054800008D10121082000F021FB0021082000F0B4
:105490001DFB3AE0C248844208D10121102000F0EF
:1054A00015FB0021102000F011FB2EE0BD488442C6
:1054B00008D10121202000F009FB0021202000F06C
:1054C00005FB22E0B848844208D10121402000F0C9
:1054D000FDFA0021402000F0F9FA16E0B3488442BA
:1054E00008D10121802000F0F1FA0021802000F095
:1054F000EDFA0AE0AE48844207D10121801500F0A0
:10550000E5FA0021A01500F0E1FA10BD10B5012167
:10551000084600F0DBFA0021012000F0D7FA10BDA8
:105520002DE9F0410246002500260020002300243A
:10553000002791F803C00CF00F0591F803C00CF0A0
:10554000100CBCF1000F03D091F802C04CEA050525
:1055500091F800C0BCF1000F31D0146800202BE09E
:105560004FF0010C0CFA00F3B1F800C00CEA03068E
:105570009E4220D183004FF00F0C0CFA03F7BC437E
:1055800005FA03FC4CEA040491F803C0BCF1280FAF
:1055900006D14FF0010C0CFA00FCC2F814C00AE06E
:1055A00091F803C0BCF1480F05D14FF0010C0CFA83
:1055B00000FCC2F810C0401C0828D1D31460B1F818
:1055C00000C0BCF1FF0F34DD546800202EE000F174
:1055D000080C4FF0010808FA0CF3B1F800C00CEA0F
:1055E00003069E4221D183004FF00F0C0CFA03F703
:1055F000BC4305FA03FC4CEA040491F803C0BCF177
:10560000280F05D100F1080C08FA0CF8C2F8148034
:1056100091F803C0BCF1480F07D100F1080C4FF01E
:10562000010808FA0CF8C2F81080401C0828CED3F4
:105630005460BDE8F0814FF6FF7101800221817056
:105640000421C17070470246002093680B400BB1E3
:10565000012000E0002070470146886880B2704752
:1056600002460020D3680B400BB1012000E000206F
:1056700070470146C86880B2704701617047416158
:1056800070470AB1016100E041617047C160704735
:105690004FF480320A43826181618261826982694A
:1056A000704702460020434B18684FF6807318403D
:1056B00040EA021008433F4B186070473E49C861FA
:1056C0007047F0B50A46002300240021002500F0B1
:1056D0000046B6F1004F02D1364EF16901E0354E79
:1056E0007168C0F3034583B200F44016B6F5401F5D
:1056F00008D121F070612F4E766826F070662D4F2C
:105700007E6012E000F48016B6F5801F06D10326F5
:1057100006FA05F4A14341F0706106E0460D36013A
:1057200003FA06F6B14341F0706122B1460D36012D
:1057300003FA06F6314300F00046B6F1004F02D1FD
:105740001C4EF16101E01B4E7160F0BD30B50022CE
:105750008B071C0F0F2303FA04F2164B08338C102F
:1057600053F824309343134C08348D1044F82530FB
:1057700023468C1053F824308C07240F00FA04F4CD
:1057800023430C4C08348D1044F8253030BD0A49B1
:10579000DC3108607047000000080140000C014047
:1057A000001001400014014000180140001C01409D
:1057B000002001400000014000002042DF48006856
:1057C00040F00100DD49086008464068DC490840B7
:1057D000DA49486008460068DA490840D749086055
:1057E0000846006820F4802008600846406820F4DD
:1057F000FE0048604FF41F0088607047CF49096879
:1058000021F48031CD4A11601146096821F48021CC
:105810001160B0F5803F03D0B0F5802F0ED106E0C7
:10582000C649096841F48031C44A116007E0C349A0
:10583000096841F4A021C14A116000E000BF00BF27
:10584000704710B501460022002300204A11012AAA
:1058500002D1BA4C236806E0022A02D1B74C236A6F
:1058600001E0B64C636A01F01F02012494401C4021
:105870000CB1012000E0002010BD38B500200090E0
:105880000024002500BF3120FFF7DBFF054600980C
:10589000401C00900098B0F5A06F01D0002DF2D010
:1058A0003120FFF7CEFF08B1012400E0002420469C
:1058B00038BD01460020A14A106820F0F80040EAF7
:1058C000C10010607047A049086070470246002080
:1058D0009A4B586820F47C1042EA01031843974B16
:1058E0005860704798490866704701460020934AFF
:1058F000506820F003000843506070478F484068AC
:1059000000F00C007047014600208C4A506820F0DF
:10591000F00008435060704701460020874A5068F5
:1059200020F4E06008435060704701460020834A3D
:10593000506820F4605040EAC1005060704729B1BF
:105940007E4A527A02437D4B5A7204E07B4A527A75
:1059500082437A4B5A7270477B49D831086070474E
:1059600001460020754A506820F4404008435060CA
:1059700070470021714A20321170704A82F820105D
:10598000012802D004280AD104E001216B4A203208
:10599000117005E00521694A2032117000E000BF56
:1059A00000BF70476949086070476449096A01434C
:1059B000624A11627047654944390860704730B5E2
:1059C00000210022002400235C4D6D6805F00C01CD
:1059D00021B1042905D0082923D105E05C4D0560DB
:1059E00022E05B4D05601FE0544D6D6805F47012B8
:1059F000524D6D6805F48034022505EB92421CB9C6
:105A0000544D554305600BE04C4D6D6805F4003571
:105A10001DB1504D5543056002E04D4D55430560A5
:105A200002E04B4D056000BF00BF444D6D6805F0BE
:105A3000F0010909484D6B5C0568DD4045603F4D4C
:105A40006D6805F4E061090A434D6B5C4568DD4013
:105A500085603A4D6D6805F46051C90A3E4D6B5C36
:105A60004568DD40C560354D6D6805F44041890BE2
:105A70003A4D6B5CC568B5FBF3F5056130BD29B1E6
:105A80002E4A526902432D4B5A6104E02B4A526957
:105A900082432A4B5A61704729B1284A92690243CE
:105AA000264B9A6104E0254A92698243234B9A610E
:105AB000704729B1214AD2690243204BDA6104E0E0
:105AC0001E4AD26982431D4BDA61704729B11B4AD5
:105AD000D2680243194BDA6004E0184AD268824364
